:1000000000800020BD01000049150000011500001E
:100010000115000001150000011500000115000088
:100020000115000001150000011500004915000030
:10003000491500000115000049150000F1140000E9
:100040004915000049150000491500004915000038
:100050004915000049150000491500004915000028
:100060004915000049150000491500004915000018
:100070004915000049150000491500004915000008
:1000800049150000491500004915000049150000F8
:1000900049150000491500004915000049150000E8
:1000A00049150000491500004915000049150000D8
:1000B00049150000491500004915000049150000C8
:1000C00049150000491500004915000049150000B8
:1000D00049150000491500004915000049150000A8
:1000E0004915000049150000491500004915000098
:1000F00049150000752A000049150000A12B0000D9
:1001000049150000CD2C00004915000049150000DC
:100110004915000049150000491500004915000067
:100120004915000049150000491500004915000057
:100130004915000049150000491500004915000047
:100140004915000049150000491500004915000037
:100150004915000049150000491500004915000027
:1001600049150000791900004915000049150000E3
:100170004915000049150000491500004915000007
:1001800049150000491500004915000049150000F7
:1001900049150000491500004915000049150000E7
:1001A00049150000491500004915000049150000D7
:1001B000491500004915000049150000564B4CF246
:1001C000205210B51A804DF628121A8000BF00BFC9
:1001D00001F0BEF9514B4FF010621A60504A9A601C
:1001E000504ADA60504A136813F4807304D14F49BF
:1001F0000B604FF4A85313604D4B1A78110703D5C9
:100200001A7842F008021A704A4B4B492A221A7097
:100210004A4A4B4B8B4204D252F8040F43F8040B6A
:10022000F8E7484B484900228B4202D243F8042B9E
:10023000FAE74649464A002352F8230041F82300D2
:1002400001336F2BF8D1434B434A802103F8011B44
:100250009342FBD1414B3D4A1A60414B8A221A70AE
:10026000A3F5805324225A70A0221A709A7992071B
:10027000FCD59A79D406FCD43A4A937903F00C035E
:10028000082B384BF9D103221A7140225A719A79FE
:100290009006FCD5334A9179324B4906FBD5324A58
:1002A000324911600221516020221A709A7902F0BD
:1002B0000C020C2AFAD12E4B2E4A1A602E4B2F4AD2
:1002C0001A6000225A60072243F8042C2C4AC3F813
:1002D0000C2D62B601F028FA144B1B68DA0705D51D
:1002E000284801F099F9284B284A1A60284B1B78B6
:1002F0005B0609D5244C254B22689A4204D121483B
:1003000001F08AF90023236002F0A6FD01F026F92E
:1003100002F064FAFEE700BF0E2005403080044082
:10032000823F04000100002B10D0034014D0034092
:1003300002D0074000E007402490FF1F183A000059
:100340002087FF1F2490FF1F1494FF1F0082FF1FB0
:100350000000000000E400E05FE400E008ED00E0E1
:100360000050064000400640448004400000030165
:1003700004800440C010050014E000E0FF76010096
:100380000000202003003E011CE00340A5C3945A56
:1003900000F00740FFFFFFFFFFFFFFFFFFFFFFFF32
:1003A000FFFFFFFFFFFFFFFFFFFFFFFFFFFFFFFF5D
:1003B000FFFFFFFFFFFFFFFFFFFFFFFFFFFFFFFF4D
:1003C000FFFFFFFFFFFFFFFFFFFFFFFFFFFFFFFF3D
:1003D000FFFFFFFFFFFFFFFFFFFFFFFFFFFFFFFF2D
:1003E000FFFFFFFFFFFFFFFFFFFFFFFFFFFFFFFF1D
:1003F000FFFFFFFFFFFFFFFFFFFFFFFFFFFFFFFF0D
:10040000FFFFFFFFFFFFFFFFFFFFFFFFDEF9FFFF23
:1004100010B5054C237833B9044B13B10448AFF33E
:1004200000800123237010BD2490FF1F00000000F6
:100430001C3A0000084B10B51BB108490848AFF33F
:1004400000800848036803B910BD074B002BFBD0A0
:10045000BDE81040184700BF000000002890FF1FB3
:100460001C3A00002490FF1F000000004069704704
:1004700000207047704700BF2DE9F04F866985B0B6
:1004800005460C46002E00F07181A368EA69002B36
:1004900040F366812746183257F8148B04F1340074
:1004A00094F813900DF10706394609F10109B44695
:1004B000BE465EF8043F43445B7843B194F80DA018
:1004C00083FA5AF3DBB209FB03F3C3F30723864530
:1004D0000CF8013FEDD1DDF80880039B88EAD81CB9
:1004E00083EAD31E0CF0AA1C0EF0AA1E88EA0C08A0
:1004F00083EA0E0388EACC1C83EACE1E4CF6CC4875
:100500008CEA9C3A8EEA9E39434609EA03030AEADA
:1005100008088CEA080C8EEA030E8CEA883C8EEA06
:10052000833E4FEA0E184FEA1C130EF0F03E0CF01B
:100530000F3C08F0F03803F00F3343EA0E0348EAAB
:100540000C0E4FEA1E494FEA1E684FEA132C02F8C0
:1005500011EC02F8153C4FEA1E2A4FEA134E1B0E0F
:1005600002F816CC02F817EC02F812AC02F8139C51
:1005700002F8148C02F8183C94F81290D4F8008019
:1005800009F101090DF1070CBE465EF8043F18F8A9
:10059000033043B194F80CA083FA5AF3DBB209FBA1
:1005A00003F3C3F3072386450CF8013FEDD1DDF8D3
:1005B0000880039B88EAD81C83EAD31E0CF0AA1C8F
:1005C0000EF0AA1E88EA0C0883EA0E0388EACC1C07
:1005D00083EACE1E4CF6CC488CEA9C3A8EEA9E39D1
:1005E000434609EA03030AEA08088CEA080C8EEA83
:1005F000030E8CEA883C8EEA833E4FEA0E184FEADF
:100600001C130EF0F03E0CF00F3C08F0F03803F035
:100610000F3343EA0E0348EA0C0E02F809EC4FEAE6
:10062000132C02F80D3C4FEA1E2A4FEA1E494FEAEE
:100630001E684FEA134E1B0E02F80AAC02F80B9C20
:1006400002F80C8C02F80ECC02F80FEC02F8103C09
:1006500094F814C0D4F800E00CF1010C51F8043FF8
:1006600073449B7843B194F80E8083FA58F3DBB25D
:100670000CFB03F3C3F30723884206F8013FEDD1D7
:10068000029B039E83EAD31186EAD61E0EF0AA1EB1
:1006900001F0AA114B4086EA0E0683EAC11186EAF0
:1006A000CE164CF6CC4381EA913886EA963C9E46BB
:1006B0000CEA0E0E08EA0303594086EA0E0681EAA8
:1006C000833186EA8E3633014FEA111E0EF00F3E5B
:1006D00001F00F3106F0F03603F0F0330B434EEA31
:1006E00006064FEA132A4FEA13494FEA13684FEA06
:1006F000162C4FEA164E310E02F8013C02F8056C3A
:1007000002F802AC02F8039C02F8048C02F806CC52
:1007100002F807EC02F8081CA36894F80CC094F8DF
:100720000DE094F80E90266894F80FB094F810A09D
:10073000617C94F91580013BCCEB0B0CCEEB0A0EDF
:10074000C9EB0101B044002B02F1180284F80CC07F
:1007500084F80DE0A173C4F80080A3603FF7A0AE59
:10076000A86905B0BDE8F04F00F080BDD1F8048065
:1007700008EB4807FF00384602F096FBE861384670
:1007800002F092FB2862012002F030F8EB692A6A3D
:1007900000960746414600F0E5FBAF61384600F0A1
:1007A000F7FB72E6F0B591B0002305688DF80030D4
:1007B0008DF801308DF802302E683A4A8DF80430F9
:1007C00096428DF805308DF8063064D1827C039115
:1007D000012A044604918DF81A308DF81B308DF8EB
:1007E0001C30CDF808D01AD08DF819308DF818309B
:1007F0008DF817308DF816308DF815308DF81430CF
:1008000000228DF81D2007AB0FA943F8042F994251
:10081000FBD1AB69204602A9984711B0F0BD224A2E
:100820001378013303F0070313F0010F14BF802185
:10083000002113709A0744BF41F04001C9B25B0721
:1008400048BF41F0200110310022C9B20DF1170359
:100850000DF11A074FF4807EAAB19EFBF2F2D2B2DC
:10086000501CC0B200FB01152D121870EEB205B17C
:10087000013E03F8036C00B11A7001339F4208D0A7
:10088000DA78002AE9D11A7003F8032C01339F4269
:10089000F6D12568B4E70A4601AB6946B04711B006
:1008A000F0BD00BFAD0800004090FF1FF0B5857C93
:1008B0001C785E789B788FB0012D8DE8060002923F
:1008C0008DF812408DF813608DF814301BD0002382
:1008D0008DF811308DF810308DF80F308DF80E3006
:1008E0008DF80D308DF80C3000228DF8152005ABF9
:1008F0000DA943F8042F8B42FBD1036869469B691D
:1009000098470FB0F0BD1B4A1378013303F007037B
:1009100013F0010F137014BF80220022990744BF07
:1009200042F04002D2B25B0748BF42F020021032D0
:10093000D2B20DF10F030DF112074FF4807EACB16E
:100940009EFBF4F4E4B2611CC9B201FB02252D1236
:100950001970EEB205B1013E03F8036C01B11C70D1
:1009600001339F42C0D0DC78002CE9D11C7003F821
:10097000034CF5E74090FF1FF0B5857C1C785E784E
:100980009B788FB0012D8DE8060002928DF8124001
:100990008DF813608DF8143020D000238DF81130BD
:1009A0008DF810308DF80F308DF80E308DF80D3039
:1009B0008DF80C30032100238DF8151002EB420254
:1009C000194605AC0131082944F8043F1344F9D114
:1009D000036869469B6998470FB0F0BD1B490B78C7
:1009E000013303F0070313F0010F0B7014BF8021D4
:1009F00000219D0744BF41F04001C9B25B0748BFD9
:100A000041F020011031C9B20DF10F030DF1120EAA
:100A10004FF4807CACB19CFBF4F4E4B2651CEDB205
:100A200005FB011636121D70F7B206B1013F03F83F
:100A3000037C05B11C7001337345BBD0DC78002CFE
:100A4000E9D11C7003F8034CF5E700BF4090FF1F8D
:100A50002A4A2B492DE9F04114682A4D2A4F40F6C5
:100A6000C4100B783BB12B789B0704D013683E6809
:100A70009B1B182B03D813681B1B8342F1D9234BF4
:100A8000002103F1080203F8011F9A42FBD120481C
:100A9000204B02688024FF253C219C7012F0010449
:100AA00059701D71DD7007D000230F221A491B48B1
:100AB000BDE8F04100F0C2B800F068FD0028F3D0B6
:100AC000174A164B11685C6001201D735D739D739E
:100AD000DD731D745D745C619C60987461B1114A32
:100AE000116801B18B601049136009481960002238
:100AF0009A6100F051FDD7E71360F0E73891FF1FCE
:100B00001C92FF1F3492FF1F0C94FF1F9B90FF1F2E
:100B10004490FF1F9C90FF1F6C90FF1F4890FF1F89
:100B2000F490FF1F0491FF1F443800002DE9F041AD
:100B3000314F3249DFF8E4803A6848784FF47A73ED
:100B400082B093FBF0F3C8F80030002A35D12C4C6A
:100B500004F12D06254623469A7852089A700333ED
:100B6000B342F9D1274891F802C0036891F803E035
:100B7000097903EB4302013305F802C00F2B2A4425
:100B800008BF0023204D82F801E091700360617876
:100B9000A27814F8033B8DF8051001A829468DF8BA
:100BA00006208DF8043000F00BF9B44205F103057E
:100BB000EDD10122D8F800303A601449144C0A688B
:100BC0000092009A2068121A934211D20B681148C1
:100BD0000193019B0178236000F082F8D8F800109F
:100BE0000D4801F055FE0C4801F002FE00233B6069
:100BF00002B0BDE8F08100BFDC90FF1F9C90FF1F9A
:100C0000A490FF1FD890FF1F6C90FF1F3891FF1F0B
:100C1000E090FF1FE490FF1F3087FF1FD490FF1F5D
:100C2000044A054B126882B00192019A1A6002B020
:100C3000704700BF3891FF1FE090FF1FF8B51E1EE0
:100C400003680446CCBF02EB420500250F469B68B3
:100C5000D8BF164698477A19236862605B690A4ACA
:100C60006661934201D12046F8BD2046984700288E
:100C7000F9D0064A064B516893FBF0F0884238BF22
:100C8000084650602046F8BD71040000E490FF1F44
:100C900040420F0070B40F4C2268531C8A4283B04C
:100CA000236013DB0C4D0D4A2968019101992D68D1
:100CB00000951668009D15604FF47A720025891B17
:100CC00002FB03F32560B3FBF1F3438003B070BC78
:100CD000704700BFF890FF1F3891FF1F0091FF1F62
:100CE0002DE9F04F43682D4C83B006468946002B12
:100CF0004BD100F0A9FCF36820601BB14846B168F5
:100D000098478146264B1C680025002C36D07388F6
:100D1000A77C61686269632B236898BFA574D3F8C8
:100D200004808DF804508DF805508DF80650B9F107
:100D3000000F1CD004F10B030DF1040E04F10E0C96
:100D400013F801BFBBF1000F0DD093F803A00AF117
:100D500001000BFB0000BAF1000F04D009FB00F00A
:100D6000000C8EF8000063450EF1010EE8D120461C
:100D700001ABC047A774A468002CC8D13046192124
:100D8000FFF788FF03B0BDE8F08F00F05DFC22683C
:100D90007368801A9842AAD3ABE700BFFC90FF1F8C
:100DA000F490FF1F00207047044B0022FF204FF0FB
:100DB000FF31187099605A80DA607047E490FF1F25
:100DC000F0B4047846788278E00000F0F80000EB98
:100DD000800303EB031303442506C3F307235FD407
:100DE00004F0400505F0FF0704F02004002D46D173
:100DF00004F0FF00002C6CD05533DDB2AB243B4631
:100E0000FF2E1CD0002E79D01CB106FB0444C4F385
:100E100007241DB106FB0555C5F307251BB106FBCD
:100E20000333C3F30723F043C0B200FB0000C0F359
:100E30000720044405440344E4B2EDB2DBB2FF2AC8
:100E400018D012FB02F0003218BF012202EB102270
:100E500012F0FF0256D01CB102FB0444C4F3072475
:100E60001DB102FB0555C5F307251BB102FB03337A
:100E7000C3F307230C704D708B70F0BC704704F007
:100E8000FF075CBB00EBC00400EB440000EBC000BC
:100E90000412563BC4F1AB04DDB2E4B23B46AFE70B
:100EA00004F0400707F0FF05E7B904F0200707F05A
:100EB000FF04002F36D100EBC00300EB430000EB32
:100EC000C000C0F30720C0F1AB055530EDB2C3B28E
:100ED00096E7DC43E4B21D46034691E70024DD4378
:100EE000EDB28DE704F0200404F0FF0594B903F19E
:100EF0005504E4B2C3F1AB03DBB281E7FF231D4627
:100F00001C469CE71546144613460C704D708B70BA
:100F1000F0BC7047A3F15604E4B20025C3F15503B9
:100F2000DBB26DE7D8431C46C3B269E708B5064A91
:100F3000064B12791A7000F087FB054A054B1060CA
:100F400000221A7008BD00BF2891FF1F1F800040BB
:100F50000C91FF1F2491FF1F10B5044601F0A8FB60
:100F6000204610BDF0B4064F064E074D074C3980A1
:100F70009DF8101032602B602170F0BC704700BFEC
:100F80001491FF1F1091FF1F2091FF1F0891FF1F59
:100F9000F8B5A24BA24E1C88306804EB4404E40070
:100FA0002246002102F040FA9E4B1868002800F00B
:100FB00003812246002102F037FA9B4B9B4F9C4D48
:100FC000FF221A600121022000F038FB01210E20CF
:100FD00000F034FB0121072000F030FB0121082044
:100FE00000F02CFB0121062000F028FB0121142039
:100FF00000F024FB0121152000F020FB0520012139
:1010000000F01CFB8B4B8C4A1B788C49DFF858C2D4
:1010100003F0F003102B4FF0080E4FF000030CBF4D
:1010200077203B2013603B600860C2F800E0A1F528
:10103000DB210CBF4FF01C0E4FF00E0E4FF069027B
:10104000CCF800207E482A60A1F5F861C7F80CE0D2
:10105000DFF808E27B4A0CBF5225292505600A60AB
:10106000DEF80020784DD371022191717748D18844
:1010700010601561D58B938021F4E06121F00701A8
:10108000D360938293612F044FF001039360D1806A
:1010900000F19580B4F5004FA1B2C0F28A80958B23
:1010A0006B4FD6F800C03B686A4EADB245F00805FC
:1010B000958300250222DD719A71C3F800C0DA8899
:1010C000D983D9821E616642DE60DE8B9D8222F466
:1010D000E0629D61012522F007029D809D6035043C
:1010E000DA8000F18980B4F5004F5FDB9A8B5A4DAE
:1010F00092B242F008029A832B684B4A1860022091
:1011000098710020D8711A61DA88988022F4E06220
:1011100022F00702D86098829861D88BDA80012289
:101120009A6002045AD4B4F5004F3CDB9E8B9EF8C3
:1011300004404A4A46494848B6B246F008069E83EB
:101140009E8B04F18044B6B204F5043446F00206E6
:101150009E830026B223267023703B7903F18043DF
:1011600003F50433A2241E701C702B7903F1804315
:1011700003F50433A3241E701C7001F0B3FA2A791E
:101180003748384D53119B0003F1604302F11004BE
:1011900003F5614302F01F02012101FA02F240F857
:1011A00024501A60F8BDD983D982BFE7D983D98288
:1011B0009CE7D183D18272E732681A60FDE6B4F50C
:1011C000007F28DAD38BA1B203F47E430B43D38391
:1011D000D38A03F47E430B43D38260E7B4F5007FE8
:1011E000A4DADA8B02F47E420A43DA83DA8A02F462
:1011F0007E421143D98299E7B4F5007FBFF676AFFE
:10120000DA8B02F47E420A43DA83DA8A02F47E42FF
:101210000A43DA826AE7A1B241E700BF1491FF1FD7
:101220001091FF1F2091FF1FC8F00F4004800B405A
:1012300014800B400891FF1F00800B4008800B407A
:1012400018800B4000030100C4F00F402487FF1FEB
:101250003091FF1FC0F00F402891FF1F1891FF1F12
:101260000082FF1F2D0F00000C800B40F8B52D4CA5
:101270002378002BFCD12C4A2C4B11681868814232
:1012800006D02B4B1A8802EB4202D20000F096F8EF
:10129000284D00F0D9F92B68C01AB0F5967FF8D325
:1012A0002549264A28230B600120136000F0EEF93F
:1012B000234B1B6872B623490A689342FCD221492A
:1012C0000A689342FCD31F4802681E499342FBD828
:1012D0001D4E1E4D1E4837792E79174BDFF878E0EA
:1012E000164A002505600D6001212170194D282442
:1012F0004FF48021CEF800101C606921D3F800E083
:101300002D7919606FF47F6EA3F52F237344146059
:101310000824D2F800E011601F701E701D70046078
:1013200062B6F8BD2491FF1F2091FF1F1091FF1F8F
:101330001491FF1F0C91FF1F0C800B4014800B4079
:1013400010800B4004800B401891FF1F3091FF1F4D
:1013500000800B402891FF1FA0A004402DE9F04120
:10136000DFF85480104D114C114F124E40460021B1
:1013700001F03AF92A462146404601F05BFD384625
:10138000002101F031F92A462146384601F052FD8C
:101390003046002101F028F92A4621463046BDE8B2
:1013A000F04101F047BD00BF2087FF1F590F00002B
:1013B0003091FF1F2891FF1F1891FF1F844641EABB
:1013C000000313F003036DD1403A41D351F8043BBD
:1013D00040F8043B51F8043B40F8043B51F8043B0F
:1013E00040F8043B51F8043B40F8043B51F8043BFF
:1013F00040F8043B51F8043B40F8043B51F8043BEF
:1014000040F8043B51F8043B40F8043B51F8043BDE
:1014100040F8043B51F8043B40F8043B51F8043BCE
:1014200040F8043B51F8043B40F8043B51F8043BBE
:1014300040F8043B51F8043B40F8043B51F8043BAE
:1014400040F8043B51F8043B40F8043B403ABDD21D
:10145000303211D351F8043B40F8043B51F8043BBF
:1014600040F8043B51F8043B40F8043B51F8043B7E
:1014700040F8043B103AEDD20C3205D351F8043B4E
:1014800040F8043B043AF9D2043208D0D2071CBF1A
:1014900011F8013B00F8013B01D30B880380604643
:1014A000704700BF082A13D38B078DD010F00303B9
:1014B0008AD0C3F10403D21ADB071CBF11F8013B29
:1014C00000F8013B80D331F8023B20F8023B7BE778
:1014D000043AD9D3013A11F8013B00F8013BF9D2A3
:1014E0000B7803704B7843708B788370604670473D
:1014F000024A136801331360704700BF3891FF1F21
:1015000008B5104C08E0236859050DD423681A0566
:101510000FD42368DB0411D423685803F3D500F0FB
:101520002BFA23685905F1D501F0A4FA23681A05AE
:10153000EFD501F035FB2368DB04EDD501F0C6FBE8
:10154000EAE700BF3480044008B5FFF7D9FF00BFC9
:10155000014B10221A80704700200540704700BFE1
:10156000094908B50B6830B16A461844A2F58052A3
:10157000904202D20860184608BD01F067FC0C23B7
:1015800003604FF0FF3008BD2887FF1F0078B0FAD6
:1015900080F04009704700BF01230370704700BF0F
:1015A0001C4A02EBC00301295B6811D004291BD03F
:1015B00052F83000002280F8802229B1022920D080
:1015C000032922D01A6070474FF480721A60704766
:1015D00052F830004FF4A27280F880121A601A6834
:1015E00022F020021A60704752F830104FF4A272B5
:1015F000012081F880021A601A6842F020021A6005
:10160000704740F203121A6070474FF481721A60FB
:10161000704700BF6038000030B4054B054D064CE4
:10162000002210211A602A602060196030BC7047C7
:1016300014D0034004D0034000D00340212801D837
:10164000FFF7AEBF704700BF72B60C490C4B0D4A96
:101650001B680868126862B6520102D5322B88BF37
:1016600001300949C3F5BB334FF47A72FF33A1FB54
:10167000031302FB00F000EB931070473891FF1F3B
:1016800018E000E004ED00E0ABAAAAAA2DE9F843B7
:10169000054672B6204F214B214A1B683C681268F0
:1016A00062B6520102D5322B88BF013495B3C3F51F
:1016B000BB331C4EDFF86490DFF86480FF334FF4D7
:1016C0007A72A6FB031302FB04F404EB931472B6C4
:1016D000D9F800103A68D8F800E062B6C1F5BB331B
:1016E000FF33A6FB03031EF0806FC4EB93134FF48C
:1016F0007A7002D0322988BF013200FB0233B3F581
:101700007A7F04D3013D05D004F57A74DFE701F058
:10171000DDF8DCE7BDE8F8833891FF1F18E000E052
:1017200004ED00E0ABAAAAAAF8B52D4B2D49DFF8CD
:10173000D0E0DFF8D0C02C4E2C4D2D4C2D4A2E4F32
:101740004FF4000018604FF0807018604FF0007088
:1017500018604FF0806018604FF000601860002043
:10176000086028234BF6FF71CCF80010CEF800304B
:10177000336013602B6023603B60B3629362092285
:1017800045F8242CC4F8D80F05F57F65C7F8D41F99
:1017900007F5FF2707F5FA67C6F8F83F2B6006F54F
:1017A000FF26C4F8D42F05F5FD2504F5FF24386085
:1017B00006F2F4761148316005F5FF6504F5FD6425
:1017C0002B602360026001F0AFF83220FFF75EFF6C
:1017D00000F0FEFC4FF4AF70BDE8F840FFF756BFD5
:1017E00008E100E0048003401480034024800340AB
:1017F0002C8003401C8003403480034000800B4059
:101800000C80034008800340431E032B14D872B69B
:101810000A4951F8230068B170B4094C058834F8BE
:101820001320466841F82360521B24F8132062B647
:1018300070BC704762B67047002070479491FF1FDC
:10184000FC93FF1F013803280BD872B6074B53F8DF
:10185000203043B100205B680130002BFBD162B621
:101860007047002070471846F9E700BFE891FF1F56
:10187000F0B472B61A491B4E012311F8014B194FEF
:101880009A00240742F0010505D556F8324064B1AC
:1018900056F83520BAB10133052BEED162B6124BA2
:1018A00000221A70F0BC00F00FBD0F4C0F4D2178D4
:1018B00047F8325007EB431308304A1E5860227035
:1018C00062B6F0BC70470849094B0A7847F83530D2
:1018D00007EBC5030830013A58600A7062B6F0E7BA
:1018E0009C3900000080FF1F1192FF1F88004000FC
:1018F000C8004000431E032B1DD81B4A400140F086
:10190000100030B4104472B6184CE25C032A1BD8A5
:10191000DFE802F00212151703220D88E25410F0DE
:10192000080F14BFC823882343EA05430831036026
:10193000416062B630BC704708300222EDE70522F4
:10194000EBE708300422E8E7094A52F8230038B1EF
:10195000084A52F82300416042F8231062B6E9E7D2
:1019600042F82310034AF7E70080FF1F2092FF1F71
:10197000E891FF1FF891FF1F2DE9F04FDFF804A356
:10198000DFF804B387B044E0A94F4FEA930807EBB0
:10199000C809013ED9F8042003F00803F6B2A2F109
:1019A000080003F0FF04002B40F0FE8057F83830A9
:1019B0001B0C99B222F8081C002B00F0EC809D4B08
:1019C00022F8064C42F8044C53F82620002A00F076
:1019D0002B82994D55F826305860984C45F82600D2
:1019E00034F81630194424F8161000F04DFC002885
:1019F00000F01382924A934B19F0080F00F108008F
:101A000018BF1346C9F8040047F8383008238AF88D
:101A100000309AF80040E4B260071AD58A4B1B7870
:101A2000A3B18A490A7802F0FF0322B1013BDBB27D
:101A30000B7003B900BE86490A7802F0FF032AB191
:101A4000013BDBB20B70002B00F0BD8104238AF850
:101A5000003004F0080303F0FF02002B00F0C88000
:101A60009BF80030DBB21E098ED19C08704F57F8EE
:101A7000342007EBC401C2F38302013A49680C2AFF
:101A800000F28580DFE802F07979838383838383A2
:101A900042838383070008686E4B6F4D0193684B48
:101AA0004A686E4E47F8343081B240F28164694B27
:101AB0006A60286000220120A1421A603A61BA617E
:101AC000307000F2E380B1F5D06F80F02782B1F57D
:101AD000817F00F0E08100F2C381802900F036822E
:101AE000822940F0DE81A9885D4B01F07F01042945
:101AF00000F2D8815B4C89000B44227062701A7826
:101B0000930740F122832070022023E2514B01937E
:101B10001A683AB3544B514E5449188834780D78AA
:101B20004028864645F0020828BF4FF0400E002CA2
:101B300084F001043470CEEB00000CBF8824C8246C
:101B400007EBC80680B285F0010544EA0E447260D6
:101B5000188047F8384072440D70002800F0B780B4
:101B6000019B1A603C4B1A88B2F5A06F0FD100217F
:101B70009A7859703E4B1A7009E0374A108842F241
:101B80002102904200F0A8802D4A47F83420394ABB
:101B9000012313703AE72A4A2A4B19F0080F18BF9D
:101BA000134647F8383031E700F08EFB324A3349AC
:101BB00052F82630002B00F03B8158688C5D42F8CB
:101BC000260003F10802C9F80420032C05D8DFE839
:101BD00004F02C02292602228A551A8819F0080FCF
:101BE0000CBF8823C82343EA024347F838300DE787
:101BF000E00700F1EB80210600F12881A20706D55D
:101C00001F4A204913780220DBB213700870E306E4
:101C100002D51C4B10221A7007B0BDE8F08F0422C9
:101C20008A55DAE705228A55D7E703228A55D4E791
:101C30000080FF1F9491FF1F4091FF1FFC93FF1F27
:101C4000C8004000880040001C92FF1FA591FF1FA4
:101C50002492FF1F3C91FF1F0892FF1FA491FF1FBA
:101C6000C02007401492FF1F5091FF1F1092FF1FCA
:101C70009820074094200740E891FF1F2092FF1F03
:101C800088200740802007409020074042F221042E
:101C9000A14200F0948043D8B1F5086F00F0A8810C
:101CA000B1F5106F40F0FD80B84AB94CA9781170B9
:101CB00004F1800503E00834AC4200F09E81236A01
:101CC0001906F8D5606A083800F0FEFAF3E7BEF1AD
:101CD000400F18BF002243E7AE4ACD1D11F8013B6B
:101CE00002F8013FA942F9D1AB4A1268862A00F0F6
:101CF0001181AA49AA4E0A78307882F0010500289D
:101D000042F002020D700CBF8821C82147F8321042
:101D100007EBC20280F0010000213070516033E710
:101D200042F22124A14240F0FE81DFF8BCC29D4B6B
:101D30009D49AC78DCF800501D6081460C70002095
:101D4000029080468446044694490D7845F0020E80
:101D500007EBCE03B9F1000F5C600CBF8824C824E8
:101D600044EA080385F0010447F83E3032700C70F5
:101D7000DFF81CE28A4BDFF82482002840F09880CC
:101D8000BCF1400F1BD144F0020407EBC403029FD7
:101D9000DFF8FCE15F60002A40F09F80020442F01F
:101DA000880207444EF8342086F800900D703B46B8
:101DB000402804D100207D4A019910800B607C4AA4
:101DC00001231370E3E600F0EBFB3FE6704B78482D
:101DD00072491A614FF0020E80F800E0754F0A70E8
:101DE000754919609960754E754D764C9A610D2153
:101DF0003970FF213170DFF8F4E129702270724DE3
:101E0000724A8EF800109F27012406F8047C5D605A
:101E10000470DA6007B0BDE8F08F6D4A47F838000B
:101E2000137801331370F1E543F82600694DD4E5CA
:101E30008B5D032B67D801A252F823F00D1A000026
:101E40000D1A0000911E00008B1E000059495C4BCA
:101E500080220D2008701A70A2077FF5D8AECFE659
:101E600040F20232914240F05681A98801F07F0190
:101E7000042916D86A88A2B94E4C89000C448146C0
:101E8000217841F00201217059E701238B55BDE50E
:101E900000238B55BAE5A98801F07F01042940F29F
:101EA0004781444B0F221A70414A012313706EE69A
:101EB00040287FF668AF44F002040EEBC401029E96
:101EC0004E60AAB1444A83F800903346403888F8FF
:101ED000005040334EF834206DE70204029B86F830
:101EE000009042F0C8020D7003444EF834205FE7C2
:101EF00083F80090029B304A88F800504038403305
:101F00004EF8342057E719F0080F0CBF02230323C3
:101F10008B557BE5314A0F211170EAE6304A54684F
:101F2000002CBED06888B5F804E003E00C32546899
:101F3000002CB6D013888342F8D153887345F5D16D
:101F4000000A03280CBF2078108903E0254C0220EA
:101F500022706270EA88824280F00C810F490D780D
:101F6000402A45F0020E944607EBCE0028BF4FF002
:101F7000400C04EB0C0344600293CCEB02004FEAEC
:101F80000C484FF001090022C824E9E61C92FF1F0B
:101F90000080FF1F0394FF1F0494FF1F1092FF1F78
:101FA000A491FF1F0C94FF1F3492FF1F5091FF1F3D
:101FB00094200740C0200740880040008820074048
:101FC00080200740982007405491FF1FA891FF1FD1
:101FD0001192FF1F4091FF1FC8004000A591FF1FF5
:101FE000A03900001492FF1F3891FF1F8C2007407A
:101FF000684A694C12782270ACE76849684B694AB4
:1020000002916949694C6A4D039405964FF00009A5
:1020100088461C4616460495206828B1456800F09D
:1020200053F92846002DF9D100232360049B306822
:102030001A46002342F8293028B1456800F044F9D7
:102040002846002DF9D100223260029A98F800301B
:102050001146002241F8042B039A0291023B4FF0F3
:10206000000122F81910032B07D8DFE803F034022F
:1020700034024FF0010388F8003009F10109B9F189
:10208000040F04F1040406F1040608F10108C3D1A9
:10209000484B059EDFF83091DFF830810021197040
:1020A000012518F8013B09F8043B1A0718D4AC00C5
:1020B00044F0020244F00304002347F8323047F8AA
:1020C00034303D4B994505F10105EAD196F8009071
:1020D00089F0010233E64FF0000388F80030CCE7C6
:1020E00000F0D2F8AC0007EB451300F1080200281D
:1020F00037D05A60314B47F8343000F0C5F844F01F
:10210000010307EBC30200F1080100B351602C4A40
:1021100047F83320CCE7B1F5A06F7FF4C2AE0022C0
:102120004FF001090BE642F221329142F7D0B8E6B6
:102130006A88002A7FF4B5AE224C89000C4481469F
:10214000217821F002012170F9E5022002E7194B04
:1021500044F001021B7847F83200164A013313702D
:10216000A6E7144B134A1B78AC00013347F8340040
:102170001370C2E74028844628BF4FF0400C04EBA0
:102180000C03CCEB00004FEA0C48029300224FF006
:102190000109D9E51C92FF1F1492FF1FF891FF1F40
:1021A0009491FF1FE891FF1F2092FF1FFC93FF1FD8
:1021B0004091FF1F1192FF1FD4200740880040006C
:1021C000C8004000C0200740C42007409C390000E0
:1021D0002DE9F843204C00F0E5FD002204F18800D1
:1021E00023461A605A60083383424FF00001F8D149
:1021F0001A4A1B4F13681B4D1B481C4EDFF8788092
:10220000DFF878C0DFF87890DFF878E043F48023D7
:102210001360C4F307233B70C4F307432B70240EF1
:10222000FF2302F528320470114D88F80030114860
:102230008CF80030D4323370012389F800307026D6
:102240008EF800104FF40074102107F8183C2E701F
:1022500004601170BDE8F8830080FF1F34800440E3
:102260009C200740B0200740B420074010200740C2
:1022700049E400E008E100E08020074088200740B2
:10228000942007400021074072B60D480268B2FA58
:1022900082F30B2B10DC4FF00041D94022EA0102FF
:1022A000026062B6074803EBC303DB00C2180021DB
:1022B000C15010465160704762B60020704700BFA1
:1022C0002C87FF1FBC83FF1F0D4B0E4AC31AA2FBB6
:1022D00003231B090B2B0CD80B4A127852B972B688
:1022E0000A484FF00041026821FA03F31A430260E2
:1022F00062B67047064A1278002AF0D0FFF7B8BAE3
:10230000BC83FF1F398EE3381192FF1F2C87FF1FFC
:102310001C92FF1F38B50F4D286878B1438802889A
:10232000C118013393420C7A02D24380204638BD53
:10233000FFF7CAFF002320462B6038BD064B1B78F1
:102340002BB10320FFF760FA28600028E6D14FF098
:10235000FF3038BD3092FF1F1C92FF1F10B5094C93
:10236000206818B143881844007A10BD064B1B78CA
:102370002BB10320FFF748FA20600028F2D14FF07C
:10238000FF3010BD3092FF1F1C92FF1F044B054A07
:102390001B6890881BB11A885B88D31A1844704751
:1023A0003092FF1FFC93FF1F0B4B1B789BB110B5A6
:1023B0000A4C206848B1FFF787FF00230320236001
:1023C000FFF722FA30B1FFF77FFF0320FFF71CFA77
:1023D0000028F8D110BD70471C92FF1F3092FF1FDC
:1023E0002DE9F04FDFF8F89083B0012289F8002042
:1023F000019169B3DFF8EC80364F019E8346D8F82F
:102400000000B0B3344D4488C4F14001B14228BF4C
:10241000314604EB010E00221FFA8EFE2A70761A56
:10242000A0F802E000F1080251B1013C22445944F5
:102430001BF8014B02F8014F8B45F9D1B0F802E0CF
:10244000BEF13F0F0BD8254A05211170002ED6D1C1
:102450000198002389F8003003B0BDE8F08F4022D6
:10246000028001460420FFF745FA0022C8F8002048
:10247000E9E73A782AB3184D4AF2F9244FF0010AF5
:1024800007E0013C16D02A78A2B900F01FFA3A788A
:10249000BAB10420FFF7D6F90728F2D889F800A0CE
:1024A000FFF7F2FEC8F800000028ACD10C4B013C4D
:1024B0001870E8D101234FF0FF302B7003B0BDE856
:1024C000F08F00234FF0FF3089F8003003B0BDE8F3
:1024D000F08F00BF1C92FF1F2C92FF1F2492FF1F42
:1024E0002592FF1F2892FF1F00B583B002AB012188
:1024F00003F8010D1846FFF773FF03B05DF804FB06
:1025000038B50E4D0E4C28680123237028B1408841
:1025100000232370C0F1400038BD0A4B1B7813B96B
:102520000020207038BD0420FFF78CF90728F7D869
:10253000FFF7AAFE28600028E9D1F1E72892FF1FE3
:102540002592FF1F1C92FF1FF8B5114B1B788BB112
:10255000104E114D346801272F7064B10F4A638803
:1025600000271770214623800420FFF7C3F9376046
:1025700000232B70F8BDFFF787FE084B28B10146FA
:1025800004201C70FFF7B6F9F2E71F70F0E700BFF8
:102590001C92FF1F2892FF1F2592FF1F2492FF1FEE
:1025A00038B50E4B1B7873B90D4C216861B103F03F
:1025B000FF054B880B800420FFF79CF9256038BD90
:1025C000084B01221A7038BDFFF75EFE0028F7D0D5
:1025D0000146BDE838400420FFF78CB92592FF1F63
:1025E0002892FF1F2492FF1FF0B572B699B90268B6
:1025F0008AB103790F2B0ED8274C218841FA03F5B5
:10260000ED070AD503F1007303F59063B2EB431FA6
:1026100003D162B6F0BD204C2188002341FA03F2B9
:1026200012F0010207D00133102BF7D162B600225D
:1026300003710260F0BD01259D402943218062B6EF
:10264000164E174D174FDFF864E0D9B201713468A8
:1026500044F0020434602C6844F002042C60A6F5B7
:1026600080268224A5F5802503F100733C6003F5E4
:102670009063223E243D0C4C8EF800105B013170BB
:102680002970217003601A605A609A60DA601A61DA
:102690005A619A61DA61F0BD3692FF1F40800440B2
:1026A0003C800440008000401F8000401A800040B1
:1026B00003790F2B11D8094A10B4137072B6084968
:1026C00004790A880123A34022EA03030B8062B63F
:1026D0001022002310BC0271036070471A80004072
:1026E0003692FF1FF0B50E7992F804E006F0FC0375
:1026F0000EF0FC0403F1804304F1804403F5014330
:1027000004F501441B682468F5004FEACE0C1FBA9B
:1027100005F0180325BA0CF0180427FA03F325FA7C
:1027200004F403F00F0304F00F049C4215D981F860
:1027300004E016710B6814680C6013600E7906F0E3
:10274000FC0404F1804404F50144F300246803F020
:10275000180523BAEB4003F00F0390F804E00EF0E5
:10276000FC0505F1804505F501454FEACE042D68CD
:1027700004F018072CBAFC4004F00F049C4215D258
:1027800006710C6881F804E0036804600E790B6040
:1027900006F0FC0000F1804000F50140F300006805
:1027A00003F0180403BAE34003F00F03177907F0AE
:1027B000FC0404F1804404F50144F800246800F0AE
:1027C000180520BAE84000F00F00984205D90F71B3
:1027D00016710B68106808601360F0BD08B5FEF74D
:1027E00037F9FEF7A3F900F071F8FAE700F05CBBE7
:1027F00000B5064A036812885B6883B001A9ADF88A
:1028000004200222984703B05DF804FB70390000F1
:10281000F0B507468BB0002A33D0012A08BF0A2240
:1028200051B3212400E0F4B2B1FBF2F502FB151123
:10283000C8B2092900F1300198BFC8B20AA988BFFF
:102840003730214488BFC0B201F8240C661E2946E7
:10285000002DE8D133B1013CE4B20AAB23442D2270
:1028600003F8242C3B6801AA11195B683846C4F1AF
:10287000220298470BB0F0BD30228DF8252021248C
:10288000E8E70368C9B21B6898470BB0F0BD00BF0A
:102890000029BABF49422D2300230A22FFF7B8BFFF
:1028A000FFF782BDFFF75ABDFFF734BDFFF76EBDDE
:1028B000FFF74ABEFFF724BE08461146FFF790BD5A
:1028C0000846FFF711BE00BF704700BF10B5154C9A
:1028D000237803B110BD01232370FFF757FD58B9CA
:1028E00000F0B8F870B900F04BF988B900F0DEF9E3
:1028F000A0B90023237010BDFFF7E6FF00F0AAF88F
:102900000028F0D000F090FA00F03AF90028EDD05D
:1029100000F08CFA00F0CAF90028EAD000F088FA3A
:10292000E7E700BF3892FF1F30B42948294A2A4BF5
:102930002A4D6024E121047011701B78284C082B6B
:1029400030D00A2B2748284937D00C2B0CBF352212
:102950003D2212232A60236002600B60234B24492E
:102960001B78244ABBB101230B601360224B23491F
:102970001B78234A012B26D9042B0FD9082B1ED9EB
:10298000102B94BF862387230B6013601D4B0122FD
:102990001A7030BC70470B601360E7E784230B604C
:1029A0001360F3E700F58E200F490830012213234E
:1029B0002A60236002600B60D0E73922F7E78523A5
:1029C0000B601360E2E780230B601360DEE700BF5B
:1029D00000400740014007404087FF1F08B0034008
:1029E0000CB0034008B00B400CB00B403A92FF1FF4
:1029F00020B0034020B00B404187FF1F24B00340AC
:102A000024B00B403992FF1FF0B44D1E2E46002417
:102A100000E00134B0FBF2F302FB1300092800F1DF
:102A200030078ABF3730F8B2C0B206F8010F184637
:102A3000002BEED10A1953704CB1107815F8016FC4
:102A400028700133E01A834202F80169F5DB084679
:102A5000F0BC7047054A064B10781B78C0B2DBB259
:102A6000984238BF4030C01A704700BF4092FF1FE5
:102A70004192FF1FF0B4384B1A7912F0300F2CD06E
:102A800072B6997D01F0FF0200293DD062B6334F46
:102A9000334938780D78334E1C46C0B2EDB2431C32
:102AA000402BE17928BF0023AB4202F1FF32C9B2CB
:102AB0001CBFF154184612F0FF02F0D12A4B1B68DC
:102AC000C2B23A704BB1A84236BFC5F14005401BB7
:102AD00040192728C4BF01221A701F49CA78D2B2F0
:102AE000150616D452060DD51B4B1B795B0609D56E
:102AF0001E4B1F491B6800220A7003B11A70164B47
:102B00003C22DA70F0BC70474022D9795A7462B620
:102B1000E3E70B791C06E5D5164B174E1C78337886
:102B2000E4B2DBB29C420ED0144D01E0A3420AD0C5
:102B30000133402B28BF00230879E85CC0B2C8717C
:102B4000087D0728F2D9DBB2034933700B791806E8
:102B500044BF7C23CB70C5E700A006404092FF1F16
:102B60004192FF1F8492FF1F3C92FF1FC892FF1FDC
:102B7000C492FF1FCC92FF1FC592FF1F4492FF1FFC
:102B8000054A064B10781B78C0B2DBB2984238BFBA
:102B90004030C01A704700BF4093FF1FD592FF1FFF
:102BA000F0B4384B1A7912F0300F2CD072B6997DF0
:102BB00001F0FF0200293DD062B6334F3349387827
:102BC0000D78334E1C46C0B2EDB2431C402BE17968
:102BD00028BF0023AB4202F1FF32C9B21CBFF1543F
:102BE000184612F0FF02F0D12A4B1B68C2B23A70AD
:102BF0004BB1A84236BFC5F14005401B40192728FC
:102C0000C4BF01221A701F49CA78D2B2150616D461
:102C100052060DD51B4B1B795B0609D51E4B1F4970
:102C20001B6800220A7003B11A70164B3C22DA703E
:102C3000F0BC70474022D9795A7462B6E3E70B7949
:102C40001C06E5D5164B174E1C783378E4B2DBB280
:102C50009C420ED0144D01E0A3420AD00133282B30
:102C600028BF00230879E85CC0B2C871087D072836
:102C7000F2D9DBB2034933700B79180644BF7C23C9
:102C8000CB70C5E700B006404093FF1FD592FF1FF1
:102C90000093FF1FD092FF1F4493FF1FD492FF1F8A
:102CA0004893FF1F4193FF1FD892FF1F054A064B11
:102CB00010781B78C0B2DBB2984238BF4030C01ADF
:102CC000704700BF5093FF1F5193FF1F30B42B4B31
:102CD0001A7994061FD52A48DA79037829490133ED
:102CE0003F2B0978C8BF00238B42D2B203D0264CB9
:102CF000D9B2E2540170254A116861B1244A1278B0
:102D0000D2B2934236BFC2F140029B1A9B18272BC6
:102D1000C4BF01230B70194AD378DBB2180611D453
:102D20005A060DD5154B1B795B0609D5194B1A4967
:102D30001B6800220A7003B11A70104B2C22DA7043
:102D400030BC704711790906EAD5144910480C784F
:102D50000178C9B28C420DD04A1C272A84BF0021B9
:102D60000A460F4D054C98BFD1B2AA5CD2B2E271AF
:102D70000170D5E76C21D170D2E700BF00C00640DA
:102D80005093FF1F5193FF1F7C93FF1F4C93FF1F16
:102D9000BD93FF1FC093FF1FBC93FF1FC493FF1F72
:102DA0005493FF1F70B584B072B6194B194D1A4871
:102DB000702241260F2480211A702E701A4604704A
:102DC000197013781B06FCD5144B186862B6144BA7
:102DD000144C984298BF00EB800001A998BF4000B6
:102DE0000A22FFF711FE01A92046002311F8012B4A
:102DF00001333AB10A2B20F8022FF7D116232370A2
:102E000004B070BD5B00DBB2237004B070BD00BFC6
:102E10000000024007000240060002400800024095
:102E20007F969800D087FF1F704700BF704700BF94
:102E3000704700BF0B460146184600F001B800BFBE
:102E400013460A460146022000F052BB014B1868A7
:102E5000704700BF108CFF1F70B50F4E0F4D761BD3
:102E6000B61018BF002405D0013455F8043B98472C
:102E7000A642F9D10A4E0B4D761B00F0BDFDB610EF
:102E800018BF002406D0013455F8043B9847A642E9
:102E9000F9D170BD70BD00BF043A0000043A0000D3
:102EA000183A0000043A0000024B0146186800F08E
:102EB00003B800BF108CFF1F2DE9F04F01F10B0587
:102EC000162D83B0064640F29F8035F0070500F1CD
:102ED000BF80A94200F2BC8000F0F4FAB5F5FC7F97
:102EE000C0F09C826B0A00F0BA80042B00F2838150
:102EF000A80900F1390E4FEA4E033830C44F07EBF2
:102F00008303A3F108015C68A14207D1ACE0002A69
:102F100080F2AC80E468A14200F0A680636823F0F0
:102F200003035A1B0F2AF2DDB9493C6901F1080E6F
:102F3000744500F0B381636823F003035A1B0F2A22
:102F400000F39981002AC1F814E0C1F810E080F282
:102F50009E80B3F5007F80F06781DB0803F1010CF0
:102F600001229B1002FA03F34A6851F83C80C4F82E
:102F7000088001EBCC091A43A9F10803E3604A6019
:102F800041F83C40C8F80C40831001249C40944216
:102F900000F28A80144206D120F00300640014423B
:102FA00000F10400FAD007EBC009CC468046DCF8FB
:102FB0000C108C4507D173E1002A80F28181C96829
:102FC0008C4500F06D814B6823F003035A1B0F2AD8
:102FD000F2DD0C46D1F80CC054F8088F4B1945F0BF
:102FE00001054D6042F00101C8F80CC03046CCF834
:102FF00008807B613B61C3F80CE0C3F808E05960CE
:103000009A5000F061FA1FE0102921D800F05AFA16
:103010001025062302207E4F07EB8303A3F108024D
:103020005C68944200F045816368E168A56823F01C
:103030000303234430465A68E96042F001028D6080
:103040005A6000F041FA0834204603B0BDE8F08F22
:1030500000240C232046336003B0BDE8F08F8023AA
:103060004FF0400E3F2049E770465DE72344E1689A
:103070005A68A56842F00102E96030468D605A60E6
:1030800000F022FA0834204603B0BDE8F08F234454
:1030900030465A6842F001025A6000F015FA0834CE
:1030A000204603B0BDE8F08FBC68636823F00308D6
:1030B000A84504D3C5EB08030F2B00F38C80554BB8
:1030C000DFF860911A68D9F8003001332A4404EB24
:1030D000080A00F0608102F580520F3222F47F620C
:1030E00022F00F0211463046019200F0EFF9B0F1E4
:1030F000FF3F8346019A00F05881824500F2FC8030
:10310000454B1968DA451144196000F05381D9F82C
:103110000000DFF810E101301BBFCAEB0B0A51447D
:10312000CEF800B019601BF0070100F01781C1F163
:103130000800C1F58051834408315A44C2F30B02A0
:10314000C2EB010949463046019300F0BFF9431C28
:10315000019B00F03F81CBEB00024A4442F00102A8
:103160001968C7F808B04944BC42CBF8042019607C
:10317000DFF8A49016D0B8F10F0F40F2FD8062681E
:10318000A8F10C0323F00703E01802F001024FF04E
:10319000050E1A430F2B6260C0F804E0C0F808E087
:1031A00000F21C811D4BBC681A68914288BF1960EF
:1031B0001B4B1A689142626888BF196022F00302B3
:1031C0009542A2EB050301D80F2B04DC304600F03A
:1031D0007BF9002438E7621943F0010345F001054B
:1031E00065603046BA60536000F06EF908342046DE
:1031F00003B0BDE8F08F142B71D9542B00F2A480DA
:10320000280B00F16F0E4FEA4E036E3076E600BFDA
:10321000148CFF1FD093FF1FD493FF1FCC93FF1F6D
:10322000C893FF1F2090FF1F5A0A042A5ED9142A50
:1032300000F2B38002F15C0149005B3207EB810CC4
:1032400057F82110DFF8DC81ACF1080C8C4500F058
:1032500088804A6822F00302934202D289688C4532
:10326000F7D1D1F80CC07A68C4F80CC0A160CCF8D2
:103270000840CC6088E6631942F0010745F001057B
:10328000656030464B610B61C3F80CE0C3F808E0A1
:103290005F609A50083400F017F9D5E64A6873E683
:1032A00008F1010818F0030F0CF1080C7FF47FAE51
:1032B00030E0DC68A34208BF02303FF435AEB3E62D
:1032C0000B440C465A68C96854F8085F42F0010282
:1032D0005A603046E9608D6000F0F6F8B4E603F11C
:1032E0005C0E03F15B004FEA4E0307E69A0902F118
:1032F000390149003832A1E7BC424A4B3FF400AFE4
:103300009C68626822F003025AE759F80839994527
:1033100040F0828010F0030F00F1FF30F5D17B68A0
:1033200023EA04037B6064009C423FF6BDAE002CA0
:103330003FF4BAAE1C4240467FF435AE64001C42F6
:1033400000F10400FAD02EE6B3F5AA7F18D8E80BF6
:1033500000F1780E4FEA4E037730CFE54FF48051FD
:10336000EBE60121D8F80430921001FA02F21A4378
:10337000C8F80420614677E70123CBF8043025E73D
:1033800040F25452934220D8A80C00F17D0E4FEA2F
:103390004E037C30B2E51032A4E6542A26D81A0B2C
:1033A00002F16F0149006E3248E7BC68626822F0A2
:1033B000030205E7CAF30B0000287FF4A8AE4244DD
:1033C000BB6842F001025A60ECE6FE234FF07F0E2C
:1033D0007E2093E501224FF00009C1E604F10801C7
:1033E000304600F043F9D9F80010DBE6B2F5AA7FC9
:1033F00005D8DA0B02F17801490077321EE740F276
:1034000054518A4205D89A0C02F17D0149007C3260
:1034100014E7FE217E2211E77B6884E7E808431C5D
:103420005B00F8E5148CFF1F70B4840746D0541E6F
:10343000002A41D0CDB2034602E0621EE4B3144636
:1034400003F8015B9A07F8D1032C2ED9CDB245EAD7
:1034500005250F2C45EA054519D903F1100226462A
:10346000103E0F2E42F8105C42F80C5C42F8085CEB
:1034700042F8045C02F11002F2D8A4F1100222F02A
:103480000F0204F00F041032032C13440DD91E4612
:103490002246043A032A46F8045BFAD8221F22F097
:1034A00003020432134404F003042CB1C9B21C44D7
:1034B00003F8011BA342FBD170BC704714460346BE
:1034C000C2E700BF704700BF704700BF38B5074C68
:1034D0000023054608462360FEF742F8431C00D04F
:1034E00038BD2368002BFBD02B6038BD1094FF1F24
:1034F0002DE9F047254C2568D5F848410646884611
:1035000092469946C4B360681F2817DC431C76B105
:1035100004EB80050122C5F888A0D4F88811824008
:103520001143022EC4F88811C5F808911ED002304C
:10353000636044F820800020BDE8F087144B03B39B
:103540004FF4C870FFF7B0FC0446D0B1D5F848314D
:10355000002780E88800C5F8484138460123C4F8B0
:103560008871C4F88C71002EE1D0D1E7D4F88C11A9
:103570000A43C4F88C21DAE705F5A674C5F848417A
:10358000C1E74FF0FF30BDE8F08700BFF43900001D
:10359000A92E0000024B13B10248FDF703BC70478F
:1035A00000000000A935000038B5074D074C2C1B62
:1035B000A41005D0013C55F8043D9847002CF9D1E2
:1035C000BDE8384000F028BA00000000000000000C
:1035D000F8B5234F0C460646FFF774FFBB685D68DD
:1035E00025F00305291B01F6EF7121F47F6121F01D
:1035F0000F01A1F58054B4F5805F07DB0021304650
:10360000FFF764FFBB682B44984204D03046FFF7B5
:103610005BFF0020F8BD61423046FFF757FF0130E5
:103620000DD0104BBA6819682D1B45F001053046C6
:10363000091B55601960FFF747FF0120F8BD002105
:103640003046FFF743FFBA68831A0F2BDEDD064CC6
:103650000449246843F00103001B53600860D5E768
:10366000148CFF1FD493FF1F2090FF1F002945D00B
:103670002DE9F0410D468046FFF724FF55F8047C04
:103680006A4927F00103A5F10804E2188E68506822
:10369000B24220F0030062D0FE0750600BD455F810
:1036A000087CE41B01F1080EA56875453B446FD00A
:1036B000E768EF60BD6015186D68ED0742D543F00F
:1036C00001026260E350B3F5007F18D2DB085A1C98
:1036D0004D6851F83270A76001209B1000FA03F387
:1036E00001EBC2001D430838E0604D6041F83240F4
:1036F000FC604046BDE8F041FFF7E6BE70475A0A5D
:10370000042A53D89A0902F139077F0002F13805DB
:1037100001EB870051F827204449083890424DD0EA
:10372000516821F003018B4202D292689042F7D196
:10373000D068E060A2608460D4604046BDE8F0419B
:10374000FFF7C2BE95683A4FBD4203443FD0D068F0
:10375000E86043F0010285606260E350B3E7FF0771
:10376000034407D455F8082CA41A1344A068E2684F
:10377000C26090602F4A126843F00100934260607B
:103780008C60B6D32C4B40461968FFF721FFB0E799
:1037900011184968C90744D49168D268CA600344C3
:1037A00043F0010091606060E350A2E7142A17D84B
:1037B00002F15C077F0002F15B05A9E7AA104B68E4
:1037C000012505FA02F213434B600246B1E743F0CC
:1037D00001024C610C61E560A5606260E35088E71E
:1037E000542A06D81A0B02F16F077F0002F16E050A
:1037F0008EE7B2F5AA7F06D8DA0B02F178077F00D0
:1038000002F1770584E740F25450824206D89A0CC0
:1038100002F17D077F0002F17C0579E7FE277E2516
:1038200076E743F001026260E35062E7148CFF1F09
:103830001C8CFF1F1C90FF1FD093FF1F0000000077
:1038400000000000AD0800007909000075040000C8
:10385000A50700006D040000710400007904000059
:103860004008FE4340A004404408FE4344A00440F6
:103870000018FE4300C004403000FE433090044076
:103880003400FE43349004401C18FE431CC0044026
:103890001018FE4310C004400818FE4308C004403E
:1038A0000C18FE430CC004400C10FE430CB0044046
:1038B0001010FE4310B004401810FE4318B004402E
:1038C0001C10FE431CB004401410FE4314B004400E
:1038D0000418FE4304C004400010FE4300B004403E
:1038E0000008FE4300A004400408FE4304A0044076
:1038F0000C08FE430CA004400808FE4308A0044046
:103900001418FE4314C004401818FE4318C00440A5
:103910000410FE4304B004400810FE4308B0044005
:103920001400FE43149004404C08FE434CA0044095
:103930000420FE4304D004402410FE4324B004407D
:103940002010FE4320B004402810FE4328B004405D
:103950002C10FE432CB004400020FE4300D0044055
:103960004808FE4348A004401000FE431090044065
:103970000D0AFFFF0000000000000000C128000049
:10398000B9280000B5280000B1280000AD280000CB
:10399000A9280000A5280000A1280000001519157D
:1039A000000100004487FF1F120000000002000019
:1039B0007087FF1F4300000000030000CC87FF1F3B
:1039C00000000000010309045887FF1F00000000E9
:1039D00002030904B487FF1F000000000303090469
:1039E000D087FF1F00000000000000000000000062
:1039F00000000000E887FF1FF8B500BFF8BC08BC56
:103A00009E4670479535000035040000210C0000EB
:083A1000A90D00005D13000088
:043A1800F8B500BF3E
:103A1C0000000000FF0000001494FF1FFFFFFFFFD9
:103A2C007C39000000000000E803000000000000EA
:103A3C000A0400001201010102000040C0168304B8
:103A4C000002010203010000180354006500650028
:103A5C006E00730079006400750069006E006F00E1
:103A6C0009024300020100C03209040000010202F5
:103A7C0001000524001001052401010104240206A3
:103A8C00052406000107058203100040090401000B
:103A9C00020A00000007050302400000070584022B
:103AAC004000000016035500530042002000530054
:103ABC0065007200690061006C00000004030904D9
:103ACC000C030000000000000000000000000000DB
:103ADC00000000000000000000000000D48AFF1F5E
:103AEC003C8BFF1FA48BFF1F000000000000000098
:103AFC0000000000000000000000000000000000BA
:103B0C0000000000000000000000000000000000A9
:103B1C000000000000000000000000000000000099
:103B2C000000000000000000000000000000000089
:103B3C000000000000000000000000000000000079
:103B4C000000000000000000000000000000000069
:103B5C000000000000000000000000000000000059
:103B6C000000000000000000000000000000000049
:103B7C000000000000000000000000000000000039
:103B8C0001000000000000000E33CDAB34126DE6D6
:103B9C00ECDE05000B00000000000000000000003F
:103BAC000000000000000000000000000000000009
:103BBC0000000000000000000000000000000000F9
:103BCC0000000000000000000000000000000000E9
:103BDC0000000000000000000000000000000000D9
:103F0C00E887FF1F0000000000000000148CFF1F5A
:103F1C00148CFF1F1C8CFF1F1C8CFF1F248CFF1F7D
:103F2C00248CFF1F2C8CFF1F2C8CFF1F348CFF1F2D
:103F3C00348CFF1F3C8CFF1F3C8CFF1F448CFF1FDD
:103F4C00448CFF1F4C8CFF1F4C8CFF1F548CFF1F8D
:103F5C00548CFF1F5C8CFF1F5C8CFF1F648CFF1F3D
:103F6C00648CFF1F6C8CFF1F6C8CFF1F748CFF1FED
:103F7C00748CFF1F7C8CFF1F7C8CFF1F848CFF1F9D
:103F8C00848CFF1F8C8CFF1F8C8CFF1F948CFF1F4D
:103F9C00948CFF1F9C8CFF1F9C8CFF1FA48CFF1FFD
:103FAC00A48CFF1FAC8CFF1FAC8CFF1FB48CFF1FAD
:103FBC00B48CFF1FBC8CFF1FBC8CFF1FC48CFF1F5D
:103FCC00C48CFF1FCC8CFF1FCC8CFF1FD48CFF1F0D
:103FDC00D48CFF1FDC8CFF1FDC8CFF1FE48CFF1FBD
:103FEC00E48CFF1FEC8CFF1FEC8CFF1FF48CFF1F6D
:103FFC00F48CFF1FFC8CFF1FFC8CFF1F048DFF1F1C
:10400C00048DFF1F0C8DFF1F0C8DFF1F148DFF1FC8
:10401C00148DFF1F1C8DFF1F1C8DFF1F248DFF1F78
:10402C00248DFF1F2C8DFF1F2C8DFF1F348DFF1F28
:10403C00348DFF1F3C8DFF1F3C8DFF1F448DFF1FD8
:10404C00448DFF1F4C8DFF1F4C8DFF1F548DFF1F88
:10405C00548DFF1F5C8DFF1F5C8DFF1F648DFF1F38
:10406C00648DFF1F6C8DFF1F6C8DFF1F748DFF1FE8
:10407C00748DFF1F7C8DFF1F7C8DFF1F848DFF1F98
:10408C00848DFF1F8C8DFF1F8C8DFF1F948DFF1F48
:10409C00948DFF1F9C8DFF1F9C8DFF1FA48DFF1FF8
:1040AC00A48DFF1FAC8DFF1FAC8DFF1FB48DFF1FA8
:1040BC00B48DFF1FBC8DFF1FBC8DFF1FC48DFF1F58
:1040CC00C48DFF1FCC8DFF1FCC8DFF1FD48DFF1F08
:1040DC00D48DFF1FDC8DFF1FDC8DFF1FE48DFF1FB8
:1040EC00E48DFF1FEC8DFF1FEC8DFF1FF48DFF1F68
:1040FC00F48DFF1FFC8DFF1FFC8DFF1F048EFF1F17
:10410C00048EFF1F0C8EFF1F0C8EFF1F148EFF1FC3
:10411C00148EFF1F1C8EFF1F1C8EFF1F248EFF1F73
:10412C00248EFF1F2C8EFF1F2C8EFF1F348EFF1F23
:10413C00348EFF1F3C8EFF1F3C8EFF1F448EFF1FD3
:10414C00448EFF1F4C8EFF1F4C8EFF1F548EFF1F83
:10415C00548EFF1F5C8EFF1F5C8EFF1F648EFF1F33
:10416C00648EFF1F6C8EFF1F6C8EFF1F748EFF1FE3
:10417C00748EFF1F7C8EFF1F7C8EFF1F848EFF1F93
:10418C00848EFF1F8C8EFF1F8C8EFF1F948EFF1F43
:10419C00948EFF1F9C8EFF1F9C8EFF1FA48EFF1FF3
:1041AC00A48EFF1FAC8EFF1FAC8EFF1FB48EFF1FA3
:1041BC00B48EFF1FBC8EFF1FBC8EFF1FC48EFF1F53
:1041CC00C48EFF1FCC8EFF1FCC8EFF1FD48EFF1F03
:1041DC00D48EFF1FDC8EFF1FDC8EFF1FE48EFF1FB3
:1041EC00E48EFF1FEC8EFF1FEC8EFF1FF48EFF1F63
:1041FC00F48EFF1FFC8EFF1FFC8EFF1F048FFF1F12
:10420C00048FFF1F0C8FFF1F0C8FFF1F148FFF1FBE
:10421C00148FFF1F1C8FFF1F1C8FFF1F248FFF1F6E
:10422C00248FFF1F2C8FFF1F2C8FFF1F348FFF1F1E
:10423C00348FFF1F3C8FFF1F3C8FFF1F448FFF1FCE
:10424C00448FFF1F4C8FFF1F4C8FFF1F548FFF1F7E
:10425C00548FFF1F5C8FFF1F5C8FFF1F648FFF1F2E
:10426C00648FFF1F6C8FFF1F6C8FFF1F748FFF1FDE
:10427C00748FFF1F7C8FFF1F7C8FFF1F848FFF1F8E
:10428C00848FFF1F8C8FFF1F8C8FFF1F948FFF1F3E
:10429C00948FFF1F9C8FFF1F9C8FFF1FA48FFF1FEE
:1042AC00A48FFF1FAC8FFF1FAC8FFF1FB48FFF1F9E
:1042BC00B48FFF1FBC8FFF1FBC8FFF1FC48FFF1F4E
:1042CC00C48FFF1FCC8FFF1FCC8FFF1FD48FFF1FFE
:1042DC00D48FFF1FDC8FFF1FDC8FFF1FE48FFF1FAE
:1042EC00E48FFF1FEC8FFF1FEC8FFF1FF48FFF1F5E
:1042FC00F48FFF1FFC8FFF1FFC8FFF1F0490FF1F0D
:10430C000490FF1F0C90FF1F0C90FF1F0000020079
:04431C00FFFFFFFFA1
:00000001FF
